:020000040800F2
:1000000000500020791000081D100008231000087F
:10001000291000082F10000835100008000000000B
:100020000000000000000000000000003B1000087D
:100030004710000800000000531000085F1000087F
:10004000C1100008C1100008C1100008C11000084C
:10005000C1100008C1100008C1100008C11000083C
:10006000C1100008C1100008C1100008C11000082C
:10007000C1100008C1100008C1100008C11000081C
:10008000C1100008C1100008C1100008C11000080C
:10009000C1100008C1100008C1100008C1100008FC
:1000A000C1100008C1100008C1100008C1100008EC
:1000B000C1100008C1100008C1100008C1100008DC
:1000C000C1100008C1100008C1100008C1100008CC
:1000D000C1100008C1100008C1100008C1100008BC
:1000E000C1100008C1100008C11000080000000085
:1000F0000000000000000000000000000000000000
:0C01000000000000000000005FF808F1A3
:10010C0010B5054C237833B9044B13B10448AFF345
:10011C0000800123237010BD2C0000200000000083
:10012C00CC22000808B5034B1BB103490348AFF3BD
:10013C00008008BD0000000030000020CC22000828
:10014C0080F0004002E000BF81F0004142001FBF80
:10015C005FEA410392EA030F7FEA226C7FEA236C89
:10016C006AD04FEA1262D2EB1363C1BFD21841407E
:10017C0048404140B8BF5B42192B88BF704710F014
:10018C00004F40F4000020F07F4018BF404211F0B7
:10019C00004F41F4000121F07F4118BF494292EA1F
:1001AC00030F3FD0A2F1010241FA03FC10EB0C004B
:1001BC00C3F1200301FA03F100F0004302D54942D8
:1001CC0060EB4000B0F5000F13D3B0F1807F06D385
:1001DC0040084FEA310102F10102FE2A51D2B1F17D
:1001EC00004F40EBC25008BF20F0010040EA030072
:1001FC007047490040EB0000013A28BFB0F5000FF2
:10020C00EDD2B0FA80FCACF1080CB2EB0C0200FAA7
:10021C000CF0AABF00EBC25052421843BCBFD040F6
:10022C001843704792F0000F81F4000106BF80F470
:10023C0000000132013BB5E74FEA41037FEA226C33
:10024C0018BF7FEA236C21D092EA030F04D092F0FE
:10025C00000F08BF0846704790EA010F1CBF002032
:10026C00704712F07F4F04D1400028BF40F000408F
:10027C00704712F100723CBF00F50000704700F0AF
:10028C00004343F0FE4040F4000070477FEA2262D6
:10029C0016BF08467FEA23630146420206BF5FEAA7
:1002AC00412390EA010F40F4800070474FF00003A7
:1002BC0004E000BF10F0004348BF40425FEA000C6E
:1002CC0008BF704743F0964301464FF000001CE016
:1002DC0050EA010208BF70474FF000030AE000BF6C
:1002EC0050EA010208BF704711F0004302D54042AA
:1002FC0061EB41015FEA010C02BF8446014600201C
:10030C0043F0B64308BFA3F18053A3F50003BCFA36
:10031C008CF2083AA3EBC25310DB01FA02FC6344E3
:10032C0000FA02FCC2F12002BCF1004F20FA02F2EA
:10033C0043EB020008BF20F00100704702F12002DD
:10034C0001FA02FCC2F1200250EA4C0021FA02F23E
:10035C0043EB020008BF20EADC7070474FF0FF0C43
:10036C001CEAD0521EBF1CEAD15392EA0C0F93EA3E
:10037C000C0F6FD01A4480EA010C400218BF5FEAE0
:10038C0041211ED04FF0006343EA501043EA511153
:10039C00A0FB01310CF00040B1F5000F3EBF49004D
:1003AC0041EAD3715B0040EA010062F17F02FD2A51
:1003BC001DD8B3F1004F40EBC25008BF20F0010034
:1003CC00704790F0000F0CF0004C08BF49024CEA4B
:1003DC00502040EA51207F3AC2BFD2F1FF0340EADD
:1003EC00C250704740F400004FF00003013A5DDC4E
:1003FC0012F1190FDCBF00F000407047C2F100028F
:10040C00410021FA02F1C2F1200200FA02FC5FEA7B
:10041C00310040F1000053EA4C0308BF20EADC70C5
:10042C00704792F0000F00F0004C02BF400010F437
:10043C00000F013AF9D040EA0C0093F0000F01F0E4
:10044C00004C02BF490011F4000F013BF9D041EA06
:10045C000C018FE70CEAD15392EA0C0F18BF93EA08
:10046C000C0F0AD030F0004C18BF31F0004CD8D132
:10047C0080EA010000F00040704790F0000F17BFB9
:10048C0090F0004F084691F0000F91F0004F14D0FF
:10049C0092EA0C0F01D142020FD193EA0C0F03D157
:1004AC004B0218BF084608D180EA010000F000405A
:1004BC0040F0FE4040F40000704740F0FE4040F435
:1004CC00400070474FF0FF0C1CEAD0521EBF1CEAD4
:1004DC00D15392EA0C0F93EA0C0F69D0A2EB0302F2
:1004EC0080EA010C49024FEA402037D04FF080538C
:1004FC0043EA111143EA10130CF000408B4238BF51
:10050C005B0042F17D024FF4000C8B4224BF5B1A5E
:10051C0040EA0C00B3EB510F24BFA3EB510340EAAC
:10052C005C00B3EB910F24BFA3EB910340EA9C005A
:10053C00B3EBD10F24BFA3EBD10340EADC001B01CA
:10054C0018BF5FEA1C1CE0D1FD2A3FF650AF8B426E
:10055C0040EBC25008BF20F0010070470CF0004C7B
:10056C004CEA50207F32C2BFD2F1FF0340EAC250A6
:10057C00704740F400004FF00003013A37E792F067
:10058C00000F00F0004C02BF400010F4000F013AC5
:10059C00F9D040EA0C0093F0000F01F0004C02BFC0
:1005AC00490011F4000F013BF9D041EA0C0195E729
:1005BC000CEAD15392EA0C0F08D142027FF47DAFC2
:1005CC0093EA0C0F7FF470AF084676E793EA0C0FB2
:1005DC0004D14B023FF44CAF08466EE730F0004CB0
:1005EC0018BF31F0004CCAD130F000427FF45CAF40
:1005FC0031F000437FF43CAF5FE700BF4FEA4002AD
:10060C00B2F1FE4F0FD34FF09E03B3EB12620DD934
:10061C004FEA002343F0004310F0004F23FA02F09E
:10062C0018BF404270474FF00000704712F1610F45
:10063C0001D1420205D110F0004008BF6FF000401C
:10064C0070474FF00000704780B483B000AF034692
:10065C000A46FB711346BB71BB792F2B04D1FB7976
:10066C00002B01D10A2300E0002318460C37BD46AD
:10067C0080BC704780B483B000AF0346FB710B465F
:10068C00BB7113467B71FB792F2B0ED9BB792F2BAA
:10069C000BD97B792F2B08D9FB79392B05D8BB7952
:1006AC00392B02D87B79392B01D90A2300E000239E
:1006BC0018460C37BD4680BC704780B483B000AF81
:1006CC000346FB71FB79292B02D9FB792F2B01D91E
:1006DC000A2300E0002318460C37BD4680BC704747
:1006EC0080B485B000AF78600023FB600DE0002380
:1006FC00BB6002E0BB680133BB60BB6840F2FA42EE
:10070C009342F7D9FB680133FB60FA687B689A4225
:10071C00EDD300BF00BF1437BD4680BC704700004E
:10072C0080B586B000AFF8607A603B600B46FB7218
:10073C00FB7A2A3B052B2BD801A252F823F000BFE1
:10074C0081070008650700089D070008730700086B
:10075C009D0700088F0700087968F868FFF7F6FC1A
:10076C0003467B6114E07968F868FFF7EDFC0346FB
:10077C007B610DE07968F868FFF7F0FD03467B615B
:10078C0006E07968F868FFF79DFE03467B6100BFC1
:10079C007869FFF733FF02463B681A603B681B68B9
:1007AC001846FFF787FD034619467869FFF7CCFC1E
:1007BC0003463B6107493869FFF7D0FD03463B61AF
:1007CC003869FFF71BFF02463B6A1A6000BF1837F7
:1007DC00BD4680BD00007A4480B485B000AF0346AE
:1007EC00FB710B46BB7113467B71FB79303BFB7184
:1007FC00BB79303BBB717B79303B7B71FB796422DD
:10080C0002FB03F1BA7913469B0013445B00CA1830
:10081C007B791344FB60FB6818461437BD4680BCDB
:10082C007047000080B485B000AF78603960002359
:10083C00FB7320E07A68144B83FB02139910D317D7
:10084C00C91A0B469B000B445B00D11ACAB2FB7B46
:10085C00C3F1020319463B680B443032D2B21A7012
:10086C007B68094A82FB03129210DB17D31A7B6058
:10087C00FB7B0133FB73FB7B022BDBD900BF00BF7F
:10088C001437BD4680BC70476766666680B489B015
:10089C0000AFF860B9607A60FB68FB610023BB6154
:1008AC000AE0BB690133BB61FB691D4A82FB031281
:1008BC009210DB17D31AFB61FB69002BF1D10023DB
:1008CC00FB7520E0FA68164B83FB02139910D317C3
:1008DC00C91A0B469B000B445B00D11ACAB2FB7DB4
:1008EC00B969CB1A1946BB680B443032D2B21A70B4
:1008FC00FB680B4A82FB03129210DB17D31AFB60C6
:10090C00FB7D0133FB75FB7DBA699A42DADCBB696E
:10091C00DAB27B681A7000BF2437BD4680BC7047C2
:10092C006766666680B582B000AF0023FB7100235A
:10093C00BB7100237B7100233B7144E00023FB71EE
:10094C003BE000237B710BE07B79234A32F81330B8
:10095C0000221946214800F090FE7B7901337B710F
:10096C007B79032BF0D9FB791B4A32F81330012227
:10097C0019461A4800F081FE0023BB7117E0BB79C1
:10098C00174A32F813301946144800F05FFE03463C
:10099C00FB70FB78012B07D1FA79BB7911499200D6
:1009AC000A4413441B783B71BB790133BB71BB798F
:1009BC00032BE4D9FB790133FB71FB79032BC0D9F1
:1009CC000820FFF78DFE3B79002BB7D03B791846FA
:1009DC000837BD4680BD00BF000000200008014064
:1009EC00080000201000002080B584B000AF7860B3
:1009FC000023FB600DE0FB687A68D11864230122A8
:100A0C00094801F0B1FA0420FFF76AFEFB680133D4
:100A1C00FB60FB687A6813441B78002BEBD100BF9A
:100A2C0000BF1037BD4680BD4800002080B582B0A5
:100A3C0000AF6323FB71F91D64230122034801F00D
:100A4C0093FA00BF0837BD4680BD00BF48000020A8
:100A5C00B0B58EB002AFCA4A07F120031268114636
:100A6C0019800233120C1A70C54A07F11C03126864
:100A7C00114619800233120C1A700023FB760023E6
:100A8C00FB60BF4A07F10803126811461980023354
:100A9C00120C1A70BA4A3B1D1268114619800233A7
:100AAC00120C1A70002387F82E306F2387F82D3024
:100ABC0000F002FB00F078F900F0DCF900F0B0F97E
:100ACC00002387F82F3029E097F82F40FFF72AFFF3
:100ADC0003461A4607F13003234403F8102C97F809
:100AEC002F3007F13002134413F8103C632B03D161
:100AFC00012387F82E3015E097F82F3007F12002EC
:100B0C00D118642301229F4801F02EFA002387F8A4
:100B1C002E3097F82F30013387F82F3097F82F307D
:100B2C00022BD1D997F82E30002B02D0FFF77EFF85
:100B3C0034E1FFF7F7FE0346FB76FB7E632B02D115
:100B4C00FFF774FF2AE107F11B01642301228D4892
:100B5C0001F00AFA002387F82F3029E097F82F408C
:100B6C00FFF7E0FE03461A4607F13003234403F86F
:100B7C00142C97F82F3007F13002134413F8143C5F
:100B8C00632B03D1012387F82E3015E097F82F3013
:100B9C0007F11C02D118642301227A4801F0E4F910
:100BAC00002387F82E3097F82F30013387F82F3039
:100BBC0097F82F30022BD1D997F82E30002B02D07A
:100BCC00FFF734FFEAE0FFF7ADFE0346BB76BB7ED2
:100BDC003D2B05D0FFF72AFF6B48FFF705FFDDE043
:100BEC0007F11A0164230122664801F0BDF90620C1
:100BFC00FFF776FD97F8203097F8211097F8222010
:100C0C001846FFF737FD03463B753B7F797FBA7F6C
:100C1C001846FFF72FFD03467B75FB7E1846FFF742
:100C2C004CFD0346BB753B7D0A2B05D07B7D0A2B07
:100C3C0002D0BB7D0A2B05D1FFF7F8FE5348FFF716
:100C4C00D3FEABE097F8203097F8211097F82220CC
:100C5C001846FFF7C1FDB8623B7F797FBA7F184613
:100C6C00FFF7BAFD78627B6ADBB2FA7E1146184652
:100C7C00FFF7EAFC0346FB75FB7D0A2B05D1FFF75A
:100C8C00D5FE4248FFF7B0FE88E0B86AFFF712FBCA
:100C9C000546FC7E786AFFF70DFB014607F1100252
:100CAC0007F10C03009313460A4621462846FFF72A
:100CBC0037FDBA6A7B6A9A4208DAFB7E2D2B05D186
:100CCC003348FFF791FE3B695B423B613B69FA1C81
:100CDC0007F108011846FFF7D9FD002387F82F30DC
:100CEC0011E097F82F3007F10802D1186423012284
:100CFC00244801F039F90520FFF7F2FC97F82F3062
:100D0C00013387F82F30FB7897F82F209A42E8D9D7
:100D1C00FB78002B02D11F48FFF766FEFB7E2F2BC2
:100D2C0028D1FB68002B25D0FB683A1D11461846CC
:100D3C00FFF778FD1848FFF757FE391D6423012291
:100D4C00104801F011F97B79302B09D0BB79302B8D
:100D5C0006D03B1D591C642301220A4801F004F9FA
:100D6C00BB79302B06D03B1D991C6423012205480E
:100D7C0001F0FAF8FFF7D6FDFFF758FEA0E600BF2A
:100D8C000023000848000020E4220008EC220008A0
:100D9C00F4220008F8220008FC220008FFF7C2FD2C
:100DAC00FFF744FE8CE600BF80B590B000AF07F1B2
:100DBC00180328220021184601F07AFA3B1D002264
:100DCC001A605A609A60DA601A610223BB610123CF
:100DDC00BB621023FB6200237B6307F118031846E8
:100DEC0000F064FC0346002B01D000F08DF80F23BB
:100DFC007B600023BB600023FB6000233B6100236E
:100E0C007B613B1D0021184600F0D0FE0346002BF1
:100E1C0001D000F079F800BF4037BD4680BD00001E
:100E2C0080B500AF114B124A1A60104B4FF416529A
:100E3C005A600E4B00229A600C4B0022DA600B4B6E
:100E4C0000221A61094B0C225A61084B00229A614C
:100E5C00064B0022DA61054801F036F80346002BF8
:100E6C0001D000F051F800BF80BD00BF4800002049
:100E7C000038014080B586B000AF07F108030022AE
:100E8C001A605A609A60DA601D4B9B691C4A43F0E9
:100E9C00200393611A4B9B6903F020037B607B68F2
:100EAC00174B9B69164A43F004039361144B9B69DF
:100EBC0003F004033B603B6800220F21114800F053
:100ECC00DCFB0F23BB600123FB6000233B6102238F
:100EDC007B6107F1080319460A4800F033FAF02346
:100EEC00BB600023FB6000233B6107F1080319463C
:100EFC00044800F027FA00BF1837BD4680BD00BF7C
:100F0C00001002400008014080B400AF72B600BF70
:100F1C00FEE7000080B485B000AF154B9B69144A06
:100F2C0043F001039361124B9B6903F00103BB6017
:100F3C00BB680F4BDB690E4A43F08053D3610C4BFB
:100F4C00DB6903F080537B607B680A4B5B68FB605A
:100F5C00FB6823F0E063FB60FB6843F08063FB609D
:100F6C00044AFB68536000BF1437BD4680BC704711
:100F7C00001002400000014080B588B000AF7860DE
:100F8C0007F1100300221A605A609A60DA607B68DD
:100F9C001B681C4A934231D11B4B9B691A4A43F480
:100FAC0080439361184B9B6903F48043FB60FB689F
:100FBC00154B9B69144A43F004039361124B9B69D4
:100FCC0003F00403BB60BB684FF400733B61022366
:100FDC007B610323FB6107F1100319460B4800F0FA
:100FEC00B1F94FF480633B6100237B610023BB614B
:100FFC0007F110031946054800F0A4F900BF20378B
:10100C00BD4680BD00380140001002400008014080
:10101C0080B400AFFEE780B400AFFEE780B400AF51
:10102C00FEE780B400AFFEE780B400AFFEE780B40B
:10103C0000AF00BFBD4680BC704780B400AF00BF9E
:10104C00BD4680BC704780B400AF00BFBD4680BCBD
:10105C00704780B500AF00F075F800BF80BD80B45C
:10106C0000AF00BFBD4680BC70470000FFF7F7FF24
:10107C000B480C490C4A002302E0D458C4500433EA
:10108C00C4188C42F9D3094A094C002301E01360BF
:10109C000432A242FBD301F0E7F8FFF7D9FC70470A
:1010AC00000000202C000020382300082C00002019
:1010BC0094000020FEE7000080B500AF084B1B68D1
:1010CC00074A43F010031360032000F007F90020D7
:1010DC0000F008F8FFF71EFF0023184680BD00BF84
:1010EC000020024080B582B000AF7860124B1A68C5
:1010FC00124B1B7819464FF47A73B3FBF1F3B2FB26
:10110C00F3F3184600F011F90346002B01D001232C
:10111C000EE07B680F2B0AD8002279684FF0FF3065
:10112C0000F0E7F8064A7B681360002300E0012317
:10113C0018460837BD4680BD20000020280000203E
:10114C002400002080B400AF054B1B781A46054BD9
:10115C001B681344034A136000BFBD4680BC704734
:10116C00280000209000002080B400AF024B1B68C8
:10117C001846BD4680BC70479000002080B485B0F6
:10118C0000AF78607B6803F00703FB600C4BDB68F7
:10119C00BB60BA684FF6FF031340BB60FB681A02D2
:1011AC00BB68134343F0BF6343F40033BB60044A92
:1011BC00BB68D36000BF1437BD4680BC704700BF0E
:1011CC0000ED00E080B400AF044BDB681B0A03F0B9
:1011DC0007031846BD4680BC704700BF00ED00E019
:1011EC0080B483B000AF03463960FB7197F90730C8
:1011FC00002B0ADB3B68DAB20C4997F90730120175
:10120C00D2B20B4483F800230AE03B68DAB20849F7
:10121C00FB7903F00F03043B1201D2B20B441A7694
:10122C0000BF0C37BD4680BC704700BF00E100E03A
:10123C0000ED00E080B489B000AFF860B9607A606E
:10124C00FB6803F00703FB61FB69C3F10703042B85
:10125C0028BF0423BB61FB690433062B02D9FB694D
:10126C00033B00E000237B614FF0FF32BB6902FAC5
:10127C0003F3DA43BB681A407B699A404FF0FF31A5
:10128C007B6901FA03F3D9437B680B40134318467F
:10129C002437BD4680BC704780B582B000AF786003
:1012AC007B68013BB3F1807F01D301230FE00A4A35
:1012BC007B68013B53600F214FF0FF30FFF790FF2D
:1012CC00054B00229A60044B07221A600023184633
:1012DC000837BD4680BD00BF10E000E080B582B08D
:1012EC0000AF78607868FFF749FF00BF0837BD464C
:1012FC0080BD80B586B000AF0346B9607A60FB73E1
:10130C0000237B61FFF75EFF78617A68B9687869C2
:10131C00FFF790FF024697F90F3011461846FFF77A
:10132C005FFF00BF1837BD4680BD80B582B000AFEF
:10133C0078607868FFF7B0FF034618460837BD465B
:10134C0080BD000080B48BB000AF786039600023A2
:10135C007B6200233B6269E101227B6A02FA03F3A0
:10136C00FB613B681B68FA691340BB61BA69FB6996
:10137C009A4240F058813B685B689A4A93425ED02F
:10138C00984A934275D8984A934258D0964A9342B9
:10139C006FD8964A934252D0944A934269D8944A51
:1013AC0093424CD0924A934263D8924A934246D08D
:1013BC00904A93425DD8122B2AD8122B59D801A2ED
:1013CC0052F823F04B1400082514000837140008B9
:1013DC00791400087F1400087F1400087F1400089B
:1013EC007F1400087F1400087F1400087F14000885
:1013FC007F1400087F1400087F1400087F14000875
:10140C007F1400087F1400082D14000841140008F4
:10141C00794A934213D02CE03B68DB683B6229E0AD
:10142C003B68DB6804333B6224E03B68DB680833D1
:10143C003B621FE03B68DB680C333B621AE03B68A5
:10144C009B68002B02D104233B6213E03B689B6832
:10145C00012B05D108233B627B68FA691A6109E00C
:10146C0008233B627B68FA695A6103E000233B6204
:10147C0000E000BFBB69FF2B01D87B6801E07B68F3
:10148C0004337B61BB69FF2B02D87B6A9B0002E0B3
:10149C007B6A083B9B003B617B691A680F213B69A7
:1014AC0001FA03F3DB431A40396A3B6901FA03F38F
:1014BC001A437B691A603B685B6803F08053002B0E
:1014CC0000F0B1804D4B9B694C4A43F00103936192
:1014DC004A4B9B6903F00103BB60BB68484A7B6ABB
:1014EC009B08023352F82330FB607B6A03F0030342
:1014FC009B000F2202FA03F3DB43FA681340FB60F4
:10150C007B68404A934213D07B683F4A93420DD08C
:10151C007B683E4A934207D07B683D4A934201D197
:10152C00032306E0042304E0022302E0012300E08D
:10153C0000237A6A02F0030292009340FA68134384
:10154C00FB602F497B6A9B080233FA6841F8232021
:10155C003B685B6803F48013002B06D02D4B9A6814
:10156C002C49BB6913438B6006E02A4B9A68BB6914
:10157C00DB43284913408B603B685B6803F4001322
:10158C00002B06D0234BDA682249BB691343CB608E
:10159C0006E0204BDA68BB69DB431E491340CB6085
:1015AC003B685B6803F40033002B06D0194B5A6878
:1015BC001849BB6913434B6006E0164B5A68BB696C
:1015CC00DB43144913404B603B685B6803F4803386
:1015DC00002B21D00F4B1A680E49BB6913430B60CB
:1015EC0021E000BF0000321000003110000022107A
:1015FC000000211000001210000011100010024019
:10160C000000014000080140000C014000100140A6
:10161C0000140140000401400B4B1A68BB69DB430A
:10162C00094913400B607B6A01337B623B681A6883
:10163C007B6A22FA03F3002B7FF48EAE00BF00BF4F
:10164C002C37BD4680BC70470004014080B485B087
:10165C0000AF78600B467B807B689A687B88134070
:10166C00002B02D00123FB7301E00023FB73FB7BF7
:10167C0018461437BD4680BC704780B483B000AFA9
:10168C0078600B467B8013467B707B78002B03D0F5
:10169C007A887B681A6103E07B881A047B681A617C
:1016AC0000BF0C37BD4680BC7047000080B586B0CB
:1016BC0000AF78607B68002B01D101236CE27B6862
:1016CC001B6803F00103002B00F08780924B5B68D2
:1016DC0003F00C03042B0CD08F4B5B6803F00C0352
:1016EC00082B12D18C4B5B6803F48033B3F5803F2D
:1016FC000BD1894B1B6803F40033002B6CD07B6837
:10170C005B68002B68D1012346E27B685B68B3F50C
:10171C00803F06D1804B1B687F4A43F480331360B3
:10172C002EE07B685B68002B0CD17B4B1B687A4AE4
:10173C0023F480331360784B1B68774A23F480239F
:10174C0013601DE07B685B68B3F5A02F0CD1724B66
:10175C001B68714A43F4802313606F4B1B686E4AFD
:10176C0043F4803313600BE06B4B1B686A4A23F421
:10177C0080331360684B1B68674A23F48023136023
:10178C007B685B68002B13D0FFF7EEFC386108E038
:10179C00FFF7EAFC02463B69D31A642B01D90323F9
:1017AC00FAE15D4B1B6803F40033002BF0D014E01E
:1017BC00FFF7DAFC386108E0FFF7D6FC02463B691C
:1017CC00D31A642B01D90323E6E1534B1B6803F4B2
:1017DC000033002BF0D100E000BF7B681B6803F0E6
:1017EC000203002B63D04C4B5B6803F00C03002B03
:1017FC000BD0494B5B6803F00C03082B1CD1464BF8
:10180C005B6803F48033002B16D1434B1B6803F049
:10181C000203002B05D07B681B69012B01D001232F
:10182C00BAE13D4B1B6823F0F8027B685B69DB0077
:10183C00394913430B603AE07B681B69002B20D0BD
:10184C00364B01221A60FFF78FFC386108E0FFF776
:10185C008BFC02463B69D31A022B01D903239BE173
:10186C002D4B1B6803F00203002BF0D02A4B1B6896
:10187C0023F0F8027B685B69DB00274913430B609C
:10188C0015E0264B00221A60FFF76EFC386108E069
:10189C00FFF76AFC02463B69D31A022B01D90323DA
:1018AC007AE11D4B1B6803F00203002BF0D17B681F
:1018BC001B6803F00803002B3AD07B689B69002B54
:1018CC0019D0174B01221A60FFF74EFC386108E063
:1018DC00FFF74AFC02463B69D31A022B01D90323BA
:1018EC005AE10D4B5B6A03F00203002BF0D0012090
:1018FC0000F0CCFA1CE00A4B00221A60FFF734FC13
:10190C0038610FE0FFF730FC02463B69D31A022B1B
:10191C0008D9032340E100BF0010024000004242FE
:10192C00800442429E4B5B6A03F00203002BE9D118
:10193C007B681B6803F00403002B00F0A6800023D7
:10194C00FB75974BDB6903F08053002B0DD1944B47
:10195C00DB69934A43F08053D361914BDB6903F00D
:10196C008053BB60BB680123FB758E4B1B6803F473
:10197C008073002B18D18B4B1B688A4A43F48073FD
:10198C001360FFF7F1FB386108E0FFF7EDFB02464F
:10199C003B69D31A642B01D90323FDE0814B1B68EF
:1019AC0003F48073002BF0D07B68DB68012B06D12D
:1019BC007B4B1B6A7A4A43F0010313622DE07B6870
:1019CC00DB68002B0CD1764B1B6A754A23F00103A4
:1019DC001362734B1B6A724A23F0040313621CE0FC
:1019EC007B68DB68052B0CD16D4B1B6A6C4A43F092
:1019FC00040313626A4B1B6A694A43F001031362C6
:101A0C000BE0674B1B6A664A23F001031362644BBD
:101A1C001B6A634A23F0040313627B68DB68002BA8
:101A2C0015D0FFF7A1FB38610AE0FFF79DFB0246DA
:101A3C003B69D31A41F28832934201D90323ABE0BC
:101A4C00574B1B6A03F00203002BEED014E0FFF798
:101A5C008BFB38610AE0FFF787FB02463B69D31A20
:101A6C0041F28832934201D9032395E04C4B1B6A17
:101A7C0003F00203002BEED1FB7D012B05D1484B6B
:101A8C00DB69474A23F08053D3617B68DB69002B09
:101A9C0000F08180424B5B6803F00C03082B61D093
:101AAC007B68DB69022B46D13F4B00221A60FFF7A3
:101ABC005BFB386108E0FFF757FB02463B69D31A22
:101ACC00022B01D9032367E0354B1B6803F000732D
:101ADC00002BF0D17B681B6AB3F5803F08D1304BEB
:101AEC005B6823F400327B689B682D4913434B6081
:101AFC002B4B5B6823F474127B68196A7B685B6AF6
:101B0C000B43274913434B60274B01221A60FFF705
:101B1C002BFB386108E0FFF727FB02463B69D31A21
:101B2C00022B01D9032337E01D4B1B6803F0007314
:101B3C00002BF0D02FE01C4B00221A60FFF714FB97
:101B4C00386108E0FFF710FB02463B69D31A022B01
:101B5C0001D9032320E0124B1B6803F00073002B08
:101B6C00F0D118E07B68DB69012B01D1012313E074
:101B7C000B4B5B68FB60FB6803F480327B681B6A71
:101B8C009A4206D1FB6803F470127B685B6A9A4236
:101B9C0001D0012300E0002318461837BD4680BD54
:101BAC0000100240007000406000424280B584B0DA
:101BBC0000AF786039607B68002B01D10123D0E045
:101BCC006A4B1B6803F007033A689A4210D9674BBB
:101BDC001B6823F0070265493B6813430B60634B9A
:101BEC001B6803F007033A689A4201D00123B8E05E
:101BFC007B681B6803F00203002B20D07B681B68FA
:101C0C0003F00403002B05D0594B5B68584A43F48E
:101C1C00E06353607B681B6803F00803002B05D05E
:101C2C00534B5B68524A43F460535360504B5B68B0
:101C3C0023F0F0027B689B684D4913434B607B6833
:101C4C001B6803F00103002B40D07B685B68012B01
:101C5C0007D1474B1B6803F40033002B15D101232C
:101C6C007FE07B685B68022B07D1414B1B6803F05C
:101C7C000073002B09D1012373E03D4B1B6803F06B
:101C8C000203002B01D101236BE0394B5B6823F07D
:101C9C0003027B685B68364913434B60FFF764FAB9
:101CAC00F8600AE0FFF760FA0246FB68D31A41F2CB
:101CBC008832934201D9032353E02D4B5B6803F028
:101CCC000C027B685B689B009A42EBD1274B1B682C
:101CDC0003F007033A689A4210D2244B1B6823F096
:101CEC00070222493B6813430B60204B1B6803F02F
:101CFC0007033A689A4201D0012332E07B681B68E3
:101D0C0003F00403002B08D0194B5B6823F4E0624A
:101D1C007B68DB68164913434B607B681B6803F0D8
:101D2C000803002B09D0124B5B6823F460527B68CC
:101D3C001B69DB000E4913434B6000F021F802468F
:101D4C000B4B5B681B0903F00F030A49CB5C22FAAF
:101D5C0003F3094A1360094B1B681846FFF7C2F9D5
:101D6C00002318461037BD4680BD00BF002002403E
:101D7C000010024004230008200000202400002052
:101D8C0080B487B000AF0023FB600023BB6000234E
:101D9C007B6100237B6000233B611E4B5B68FB6017
:101DAC00FB6803F00C03042B02D0082B03D027E0B4
:101DBC00194B3B6127E0FB689B0C03F00F03174AA0
:101DCC00D35C7B60FB6803F48033002B10D0114B89
:101DDC005B685B0C03F00103114AD35CBB607B684E
:101DEC000D4A02FB03F2BB68B2FBF3F37B6104E028
:101DFC007B680C4A02FB03F37B617B693B6102E06D
:101E0C00054B3B6100BF3B6918461C37BD4680BC87
:101E1C00704700BF0010024000127A001C2300081B
:101E2C002C23000800093D0080B400AF024B1B6856
:101E3C001846BD4680BC70472000002080B500AF1E
:101E4C00FFF7F2FF0246054B5B681B0A03F0070322
:101E5C000349CB5C22FA03F3184680BD0010024004
:101E6C001423000880B500AFFFF7DEFF0246054BD8
:101E7C005B68DB0A03F007030349CB5C22FA03F32C
:101E8C00184680BD001002401423000880B485B0B1
:101E9C0000AF78600A4B1B680A4AA2FB03235B0A5B
:101EAC007A6802FB03F3FB6000BFFB685A1EFA6002
:101EBC00002BF9D100BF00BF1437BD4680BC704762
:101ECC0020000020D34D621080B582B000AF786046
:101EDC007B68002B01D1012342E07B6893F84130F1
:101EEC00DBB2002B06D17B68002283F84020786897
:101EFC00FFF742F87B68242283F841207B681B683B
:101F0C00DA687B681B6822F40052DA60786800F0AB
:101F1C001DF97B681B681A697B681B6822F4904268
:101F2C001A617B681B685A697B681B6822F02A025D
:101F3C005A617B681B68DA687B681B6842F4005244
:101F4C00DA607B6800225A647B68202283F8412087
:101F5C007B68202283F842207B6800225A6300238E
:101F6C0018460837BD4680BD80B58AB002AFF86010
:101F7C00B9603B601346FB8000237B61FB6893F8E0
:101F8C004130DBB2202B6DD1BB68002B02D0FB881B
:101F9C00002B01D1012366E0FB6800225A64FB6828
:101FAC00212283F84120FFF7DFF87861FB68FA887B
:101FBC009A84FB68FA88DA84FB689B68B3F5805FC7
:101FCC0008D1FB681B69002B04D10023FB61BB68A3
:101FDC00BB6103E0BB68FB610023BB612AE03B688B
:101FEC0000937B6900228021F86800F040F80346DA
:101FFC00002B01D0032336E0FB69002B0BD1BB690E
:10200C001B881A46FB681B68C2F308025A60BB693E
:10201C000233BB6107E0FB691A78FB681B685A60E6
:10202C00FB690133FB61FB68DB8C9BB2013B9AB211
:10203C00FB68DA84FB68DB8C9BB2002BCFD13B684E
:10204C0000937B6900224021F86800F010F80346E9
:10205C00002B01D0032306E0FB68202283F84120EB
:10206C00002300E0022318462037BD4680BD80B512
:10207C0090B000AFF860B9603B601346FB7150E064
:10208C00BB6CB3F1FF3F4CD0BB6C002B07D0FFF700
:10209C006BF802463B68D31ABA6C9A4241D2FB6881
:1020AC001B680C33BB62BB6A53E8003F7B627B6AE4
:1020BC0023F4D073FB63FB681B680C33FA6B7A63F5
:1020CC003B63396B7A6B41E80023FB62FB6A002BA4
:1020DC00E5D1FB681B6814337B617B6953E8003FD7
:1020EC003B613B6923F00103BB63FB681B68143342
:1020FC00BA6B3A62FB61F9693A6A41E80023BB6149
:10210C00BB69002BE5D1FB68202283F84120FB68DA
:10211C00202283F84220FB68002283F8402003230E
:10212C000FE0FB681B681A68BB681340BA689A42D8
:10213C000CBF01230023DBB21A46FB799A429FD0D5
:10214C00002318464037BD4680BD000080B584B0E2
:10215C0000AF78607B681B681B6923F440517B6877
:10216C00DA687B681B680A431A617B689A687B682B
:10217C001B691A437B685B691343BB607B681B68F4
:10218C00DB6823F4B05323F00C037A681268B96847
:10219C000B43D3607B681B685B6923F440717B68DD
:1021AC009A697B681B680A435A617B681B682C4AD6
:1021BC00934203D1FFF756FEF86002E0FFF73EFEB4
:1021CC00F860FA6813469B0013449A001A447B6823
:1021DC005B689B00B2FBF3F3224AA2FB03235B096F
:1021EC001901FA6813469B0013449A001A447B6841
:1021FC005B689B00B2FBF3F21A4BA3FB02035B0977
:10220C00642000FB03F3D31A1B013233154AA2FBE3
:10221C0003235B0903F0F0031944FA6813469B008F
:10222C0013449A001A447B685B689B00B2FBF3F280
:10223C000C4BA3FB02035B09642000FB03F3D31AD2
:10224C001B013233074AA2FB03235B0903F00F0285
:10225C007B681B680A449A6000BF1037BD4680BD7E
:10226C00003801401F85EB5170B500260C4D0D4C0C
:10227C00641BA410A64209D100F022F800260A4DD6
:10228C000A4C641BA410A64205D170BD55F8043B42
:10229C0098470136EEE755F8043B98470136F2E7CC
:1022AC0030230008302300083023000834230008B2
:1022BC0003460244934200D1704703F8011BF9E72F
:1022CC00F8B500BFF8BC08BC9E467047F8B500BF17
:0822DC00F8BC08BC9E467047E7
:1022E4004572726F72000000494E56414C44000022
:1022F4002D000000300000002E000000000000004F
:1023040000000000000000000102030406070809A1
:102314000000000001020304020304050607080983
:0C2324000A0B0C0D0E0F1010010200003F
:04233000310100086F
:042334000D0100088F
:102338000100020004000800100020004000800096
:102348003738392F3435362A3132332D63303D2B27
:0C2358000024F400100000000100000050
:040000050800107966
:00000001FF
